{
  "contractName": "Tacos",
  "abi": [
    {
      "constant": true,
      "inputs": [
        {
          "name": "",
          "type": "address"
        }
      ],
      "name": "userInfo",
      "outputs": [
        {
          "name": "totalPriority",
          "type": "uint256"
        }
      ],
      "payable": false,
      "stateMutability": "view",
      "type": "function"
    },
    {
      "constant": true,
      "inputs": [
        {
          "name": "",
          "type": "uint256"
        }
      ],
      "name": "users",
      "outputs": [
        {
          "name": "",
          "type": "address"
        }
      ],
      "payable": false,
      "stateMutability": "view",
      "type": "function"
    },
    {
      "constant": true,
      "inputs": [],
      "name": "minimumPriority",
      "outputs": [
        {
          "name": "",
          "type": "uint256"
        }
      ],
      "payable": false,
      "stateMutability": "view",
      "type": "function"
    },
    {
      "constant": true,
      "inputs": [],
      "name": "owner",
      "outputs": [
        {
          "name": "",
          "type": "address"
        }
      ],
      "payable": false,
      "stateMutability": "view",
      "type": "function"
    },
    {
      "constant": true,
      "inputs": [],
      "name": "numberOfRequests",
      "outputs": [
        {
          "name": "",
          "type": "uint256"
        }
      ],
      "payable": false,
      "stateMutability": "view",
      "type": "function"
    },
    {
      "constant": true,
      "inputs": [
        {
          "name": "",
          "type": "address"
        }
      ],
      "name": "userName",
      "outputs": [
        {
          "name": "",
          "type": "string"
        }
      ],
      "payable": false,
      "stateMutability": "view",
      "type": "function"
    },
    {
      "inputs": [
        {
          "name": "_minimumPriority",
          "type": "uint256"
        }
      ],
      "payable": false,
      "stateMutability": "nonpayable",
      "type": "constructor"
    },
    {
      "payable": true,
      "stateMutability": "payable",
      "type": "fallback"
    },
    {
      "constant": false,
      "inputs": [],
      "name": "kill",
      "outputs": [],
      "payable": false,
      "stateMutability": "nonpayable",
      "type": "function"
    },
    {
      "constant": true,
      "inputs": [
        {
          "name": "_user",
          "type": "address"
        }
      ],
      "name": "checkUserExists",
      "outputs": [
        {
          "name": "",
          "type": "bool"
        }
      ],
      "payable": false,
      "stateMutability": "view",
      "type": "function"
    },
    {
      "constant": false,
      "inputs": [
        {
          "name": "_name",
          "type": "string"
        }
      ],
      "name": "register",
      "outputs": [],
      "payable": false,
      "stateMutability": "nonpayable",
      "type": "function"
    },
    {
      "constant": false,
      "inputs": [
        {
          "name": "_fileName",
          "type": "string"
        }
      ],
      "name": "request",
      "outputs": [],
      "payable": true,
      "stateMutability": "payable",
      "type": "function"
    },
    {
      "constant": false,
      "inputs": [
        {
          "name": "_user",
          "type": "address"
        },
        {
          "name": "_fileName",
          "type": "string"
        }
      ],
      "name": "approve",
      "outputs": [],
      "payable": false,
      "stateMutability": "nonpayable",
      "type": "function"
    },
    {
      "constant": false,
      "inputs": [
        {
          "name": "_user",
          "type": "address"
        },
        {
          "name": "_fileName",
          "type": "string"
        }
      ],
      "name": "revoke",
      "outputs": [],
      "payable": false,
      "stateMutability": "nonpayable",
      "type": "function"
    }
  ],
  "bytecode": "0x608060405234801561001057600080fd5b5060405160208061178183398101806040528101908080519060200190929190505050336000806101000a81548173ffffffffffffffffffffffffffffffffffffffff021916908373ffffffffffffffffffffffffffffffffffffffff160217905550600081111561008457806001819055505b506116ed806100946000396000f3006080604052600436106100ba576000357c0100000000000000000000000000000000000000000000000000000000900463ffffffff168063133f50f5146100bc5780631959a0021461011757806329cd00f71461016e5780632c199889146101f7578063365b98b21461025357806341c0e1b5146102c057806345c4bd46146102d75780638da5cb5b14610302578063afd0224b14610359578063cf569977146103e2578063e6b972f51461040d578063f2c298be146104c9575b005b3480156100c857600080fd5b506100fd600480360381019080803573ffffffffffffffffffffffffffffffffffffffff169060200190929190505050610532565b604051808215151515815260200191505060405180910390f35b34801561012357600080fd5b50610158600480360381019080803573ffffffffffffffffffffffffffffffffffffffff1690602001909291905050506105d5565b6040518082815260200191505060405180910390f35b34801561017a57600080fd5b506101f5600480360381019080803573ffffffffffffffffffffffffffffffffffffffff169060200190929190803590602001908201803590602001908080601f01602080910402602001604051908101604052809392919081815260200183838082843782019150505050505091929192905050506105f3565b005b610251600480360381019080803590602001908201803590602001908080601f0160208091040260200160405190810160405280939291908181526020018383808284378201915050505050509192919290505050610c4e565b005b34801561025f57600080fd5b5061027e60048036038101908080359060200190929190505050610eb6565b604051808273ffffffffffffffffffffffffffffffffffffffff1673ffffffffffffffffffffffffffffffffffffffff16815260200191505060405180910390f35b3480156102cc57600080fd5b506102d5610ef4565b005b3480156102e357600080fd5b506102ec610f85565b6040518082815260200191505060405180910390f35b34801561030e57600080fd5b50610317610f8b565b604051808273ffffffffffffffffffffffffffffffffffffffff1673ffffffffffffffffffffffffffffffffffffffff16815260200191505060405180910390f35b34801561036557600080fd5b506103e0600480360381019080803573ffffffffffffffffffffffffffffffffffffffff169060200190929190803590602001908201803590602001908080601f0160208091040260200160405190810160405280939291908181526020018383808284378201915050505050509192919290505050610fb0565b005b3480156103ee57600080fd5b506103f761136d565b6040518082815260200191505060405180910390f35b34801561041957600080fd5b5061044e600480360381019080803573ffffffffffffffffffffffffffffffffffffffff169060200190929190505050611373565b6040518080602001828103825283818151815260200191508051906020019080838360005b8381101561048e578082015181840152602081019050610473565b50505050905090810190601f1680156104bb5780820380516001836020036101000a031916815260200191505b509250505060405180910390f35b3480156104d557600080fd5b50610530600480360381019080803590602001908201803590602001908080601f0160208091040260200160405190810160405280939291908181526020018383808284378201915050505050509192919290505050611423565b005b600080600090505b6003805490508110156105ca578273ffffffffffffffffffffffffffffffffffffffff1660038281548110151561056d57fe5b9060005260206000200160009054906101000a900473ffffffffffffffffffffffffffffffffffffffff1673ffffffffffffffffffffffffffffffffffffffff1614156105bd57600191506105cf565b808060010191505061053a565b600091505b50919050565b60046020528060005260406000206000915090508060030154905081565b6000806000809054906101000a900473ffffffffffffffffffffffffffffffffffffffff1673ffffffffffffffffffffffffffffffffffffffff163373ffffffffffffffffffffffffffffffffffffffff1614151561065157600080fd5b600073ffffffffffffffffffffffffffffffffffffffff168473ffffffffffffffffffffffffffffffffffffffff161415151561068d57600080fd5b6000835111151561069d57600080fd5b60009150600090505b600460008573ffffffffffffffffffffffffffffffffffffffff1673ffffffffffffffffffffffffffffffffffffffff1681526020019081526020016000206001018054905081101561083a57826040518082805190602001908083835b6020831015156107295780518252602082019150602081019050602083039250610704565b6001836020036101000a038019825116818451168082178552505050505050905001915050604051809103902060001916600460008673ffffffffffffffffffffffffffffffffffffffff1673ffffffffffffffffffffffffffffffffffffffff168152602001908152602001600020600101828154811015156107a957fe5b90600052602060002001604051808280546001816001161561010002031660029004801561080e5780601f106107ec57610100808354040283529182019161080e565b820191906000526020600020905b8154815290600101906020018083116107fa575b5050915050604051809103902060001916141561082d5780915061083a565b80806001019150506106a6565b600460008573ffffffffffffffffffffffffffffffffffffffff1673ffffffffffffffffffffffffffffffffffffffff168152602001908152602001600020600201600460008673ffffffffffffffffffffffffffffffffffffffff1673ffffffffffffffffffffffffffffffffffffffff168152602001908152602001600020600101838154811015156108cb57fe5b90600052602060002001908060018154018082558091505090600182039060005260206000200160009091929091909150908054600181600116156101000203166002900461091b9291906114f5565b5050600460008573ffffffffffffffffffffffffffffffffffffffff1673ffffffffffffffffffffffffffffffffffffffff1681526020019081526020016000206001016001600460008773ffffffffffffffffffffffffffffffffffffffff1673ffffffffffffffffffffffffffffffffffffffff16815260200190815260200160002060010180549050038154811015156109b457fe5b90600052602060002001600460008673ffffffffffffffffffffffffffffffffffffffff1673ffffffffffffffffffffffffffffffffffffffff16815260200190815260200160002060010183815481101515610a0d57fe5b906000526020600020019080546001816001161561010002031660029004610a369291906114f5565b50600460008573ffffffffffffffffffffffffffffffffffffffff1673ffffffffffffffffffffffffffffffffffffffff16815260200190815260200160002060000182815481101515610a8657fe5b9060005260206000200154600460008673ffffffffffffffffffffffffffffffffffffffff1673ffffffffffffffffffffffffffffffffffffffff16815260200190815260200160002060030160008282540392505081905550600460008573ffffffffffffffffffffffffffffffffffffffff1673ffffffffffffffffffffffffffffffffffffffff1681526020019081526020016000206000016001600460008773ffffffffffffffffffffffffffffffffffffffff1673ffffffffffffffffffffffffffffffffffffffff1681526020019081526020016000206000018054905003815481101515610b7757fe5b9060005260206000200154600460008673ffffffffffffffffffffffffffffffffffffffff1673ffffffffffffffffffffffffffffffffffffffff16815260200190815260200160002060000183815481101515610bd157fe5b9060005260206000200181905550600460008573ffffffffffffffffffffffffffffffffffffffff1673ffffffffffffffffffffffffffffffffffffffff168152602001908152602001600020600101805480919060019003610c34919061157c565b506002600081548092919060019003919050555050505050565b610c5733610532565b1515610c6257600080fd5b6000600560003373ffffffffffffffffffffffffffffffffffffffff1673ffffffffffffffffffffffffffffffffffffffff168152602001908152602001600020805460018160011615610100020316600290049050111515610cc457600080fd5b60008151111515610cd457600080fd5b60015434111515610ce457600080fd5b600460003373ffffffffffffffffffffffffffffffffffffffff1673ffffffffffffffffffffffffffffffffffffffff16815260200190815260200160002060000160015434811515610d3357fe5b049080600181540180825580915050906001820390600052602060002001600090919290919091505550600460003373ffffffffffffffffffffffffffffffffffffffff1673ffffffffffffffffffffffffffffffffffffffff168152602001908152602001600020600101819080600181540180825580915050906001820390600052602060002001600090919290919091509080519060200190610dda9291906115a8565b505060015434811515610de957fe5b04600460003373ffffffffffffffffffffffffffffffffffffffff1673ffffffffffffffffffffffffffffffffffffffff168152602001908152602001600020600301600082825401925050819055506002600081548092919060010191905055506000809054906101000a900473ffffffffffffffffffffffffffffffffffffffff1673ffffffffffffffffffffffffffffffffffffffff166108fc349081150290604051600060405180830381858888f19350505050158015610eb2573d6000803e3d6000fd5b5050565b600381815481101515610ec557fe5b906000526020600020016000915054906101000a900473ffffffffffffffffffffffffffffffffffffffff1681565b6000809054906101000a900473ffffffffffffffffffffffffffffffffffffffff1673ffffffffffffffffffffffffffffffffffffffff163373ffffffffffffffffffffffffffffffffffffffff161415610f83576000809054906101000a900473ffffffffffffffffffffffffffffffffffffffff1673ffffffffffffffffffffffffffffffffffffffff16ff5b565b60015481565b6000809054906101000a900473ffffffffffffffffffffffffffffffffffffffff1681565b6000806000809054906101000a900473ffffffffffffffffffffffffffffffffffffffff1673ffffffffffffffffffffffffffffffffffffffff163373ffffffffffffffffffffffffffffffffffffffff1614151561100e57600080fd5b600073ffffffffffffffffffffffffffffffffffffffff168473ffffffffffffffffffffffffffffffffffffffff161415151561104a57600080fd5b6000835111151561105a57600080fd5b60009150600090505b600460008573ffffffffffffffffffffffffffffffffffffffff1673ffffffffffffffffffffffffffffffffffffffff168152602001908152602001600020600201805490508110156111f757826040518082805190602001908083835b6020831015156110e657805182526020820191506020810190506020830392506110c1565b6001836020036101000a038019825116818451168082178552505050505050905001915050604051809103902060001916600460008673ffffffffffffffffffffffffffffffffffffffff1673ffffffffffffffffffffffffffffffffffffffff1681526020019081526020016000206002018281548110151561116657fe5b9060005260206000200160405180828054600181600116156101000203166002900480156111cb5780601f106111a95761010080835404028352918201916111cb565b820191906000526020600020905b8154815290600101906020018083116111b7575b505091505060405180910390206000191614156111ea578091506111f7565b8080600101915050611063565b600460008573ffffffffffffffffffffffffffffffffffffffff1673ffffffffffffffffffffffffffffffffffffffff1681526020019081526020016000206002016001600460008773ffffffffffffffffffffffffffffffffffffffff1673ffffffffffffffffffffffffffffffffffffffff168152602001908152602001600020600201805490500381548110151561128e57fe5b90600052602060002001600460008673ffffffffffffffffffffffffffffffffffffffff1673ffffffffffffffffffffffffffffffffffffffff168152602001908152602001600020600201838154811015156112e757fe5b9060005260206000200190805460018160011615610100020316600290046113109291906114f5565b50600460008573ffffffffffffffffffffffffffffffffffffffff1673ffffffffffffffffffffffffffffffffffffffff168152602001908152602001600020600201805480919060019003611366919061157c565b5050505050565b60025481565b60056020528060005260406000206000915090508054600181600116156101000203166002900480601f01602080910402602001604051908101604052809291908181526020018280546001816001161561010002031660029004801561141b5780601f106113f05761010080835404028352916020019161141b565b820191906000526020600020905b8154815290600101906020018083116113fe57829003601f168201915b505050505081565b61142c33610532565b15151561143857600080fd5b80600560003373ffffffffffffffffffffffffffffffffffffffff1673ffffffffffffffffffffffffffffffffffffffff168152602001908152602001600020908051906020019061148b9291906115a8565b5060033390806001815401808255809150509060018203906000526020600020016000909192909190916101000a81548173ffffffffffffffffffffffffffffffffffffffff021916908373ffffffffffffffffffffffffffffffffffffffff1602179055505050565b828054600181600116156101000203166002900490600052602060002090601f016020900481019282601f1061152e578054855561156b565b8280016001018555821561156b57600052602060002091601f016020900482015b8281111561156a57825482559160010191906001019061154f565b5b5090506115789190611628565b5090565b8154818355818111156115a3578183600052602060002091820191016115a2919061164d565b5b505050565b828054600181600116156101000203166002900490600052602060002090601f016020900481019282601f106115e957805160ff1916838001178555611617565b82800160010185558215611617579182015b828111156116165782518255916020019190600101906115fb565b5b5090506116249190611628565b5090565b61164a91905b8082111561164657600081600090555060010161162e565b5090565b90565b61167691905b8082111561167257600081816116699190611679565b50600101611653565b5090565b90565b50805460018160011615610100020316600290046000825580601f1061169f57506116be565b601f0160209004906000526020600020908101906116bd9190611628565b5b505600a165627a7a7230582073f642a07deb91eefdb445c370b6dd5c7f388a30a24250f8f61d0a44e58e4c6c0029",
  "source": "pragma solidity ^0.4.20;\n\ncontract Tacos {\n    address public owner;\n    uint256 public minimumPriority;\n    uint256 public numberOfRequests;\n    address[] public users;\n    \n    struct User {\n        uint256[] priority;\n        string[] fileNameRequest;\n        string[] fileNameAccess;\n        uint256 totalPriority;\n    }\n    \n    mapping(address => User) public userInfo; //counter is users.length\n    mapping(address => string) public userName; //counter is users.length\n    \n    function() public payable { }\n\n    function Tacos(uint256 _minimumPriority) public {\n        owner = msg.sender;\n        if(_minimumPriority > 0) minimumPriority = _minimumPriority;\n    }\n    \n    function kill() public {\n        if(msg.sender == owner) selfdestruct(owner);\n    }\n    \n    function checkUserExists(address _user) public constant returns(bool){\n        for(uint256 i = 0; i < users.length; i++) {\n            if(users[i] == _user) return true;\n        }\n        return false;\n    }\n\n    function register(string _name) public {\n        require(!checkUserExists(msg.sender));\n\n        userName[msg.sender] = _name;\n        users.push(msg.sender);\n    }\n\n    function request(string _fileName) public payable {\n        require(checkUserExists(msg.sender));\n        require(bytes(userName[msg.sender]).length > 0);\n        require(bytes(_fileName).length > 0);\n        require(msg.value > minimumPriority);\n\n        userInfo[msg.sender].priority.push(msg.value/minimumPriority); //counter is priority.lengh\n        userInfo[msg.sender].fileNameRequest.push(_fileName); //counter is fileName.length\n        userInfo[msg.sender].totalPriority += msg.value/minimumPriority;\n        numberOfRequests++;\n        owner.transfer(msg.value);\n    }\n\n    function approve(address _user, string _fileName) public {\n        require(msg.sender == owner);\n        require(_user != address(0));\n        require(bytes(_fileName).length > 0);\n        \n        uint256 _index = 0;\n        for(uint256 i = 0; i < userInfo[_user].fileNameRequest.length; i++) {\n            if(keccak256(userInfo[_user].fileNameRequest[i]) == keccak256(_fileName)) {\n                _index = i;\n                break;\n            }\n        }\n        userInfo[_user].fileNameAccess.push(userInfo[_user].fileNameRequest[_index]);\n        userInfo[_user].fileNameRequest[_index] = userInfo[_user].fileNameRequest[userInfo[_user].fileNameRequest.length - 1];\n        userInfo[_user].totalPriority -= userInfo[_user].priority[_index];\n        userInfo[_user].priority[_index] = userInfo[_user].priority[userInfo[_user].priority.length - 1];\n        userInfo[_user].fileNameRequest.length --;\n        numberOfRequests--;\n    }\n\n    function revoke(address _user, string _fileName) public {\n        require(msg.sender == owner);\n        require(_user != address(0));\n        require(bytes(_fileName).length > 0);\n\n        uint256 _index = 0;\n        for(uint256 i = 0; i < userInfo[_user].fileNameAccess.length; i++) {\n            if(keccak256(userInfo[_user].fileNameAccess[i]) == keccak256(_fileName)) {\n                _index = i;\n                break;\n            }\n        }\n        userInfo[_user].fileNameAccess[_index] = userInfo[_user].fileNameAccess[userInfo[_user].fileNameAccess.length - 1];\n        userInfo[_user].fileNameAccess.length --;\n    }\n}\n",
  "sourcePath": "/home/saumo/Desktop/TACOS/contracts/Tacos.sol",
  "compiler": {
    "name": "solc",
    "version": "0.4.24+commit.e67f0147.Emscripten.clang"
  },
  "schemaVersion": "2.0.1",
  "updatedAt": "2018-10-11T12:07:03.159Z"
}